:100000000C948B000C94AA000C94AA000C94AA00E7
:100010000C94AA000C94AA000C94AA000C94AA00B8
:100020000C94AA000C94AA000C94AA000C94AA00A8
:100030000C94AA000C9484010C94AA000C94AA00BD
:100040000C94AA000C94AA000C94AA000C94AA0088
:100050000C94AA000C94AA000C94AA000C94AA0078
:100060000C94AA000C94AA000C94AA000C94AA0068
:100070000C94AA000C94AA000C94AA000C94AA0058
:100080000C94AA000C94AA000C94AA0050038203BA
:100090008203820382038203820382038203820338
:1000A0008203820382038203820382038203820328
:1000B0008203820382038203820382038203820318
:1000C0008203820382038203820382038203820308
:1000D00082037F03820382038203820382038203FB
:1000E0007A03820382038203820382037D03530324
:1000F000560359035C035F036203650368036B03E4
:1001000082038203820382038203820382036E03DB
:1001100071037403770311241FBECFEFD0E4DEBF59
:10012000CDBF11E0A0E0B1E0E4E6F7E000E00BBFF6
:1001300002C007900D92A231B107D9F711E0A2E1F8
:10014000B1E001C01D92A632B107E1F70E94C802DA
:100150000C94B0030C94000040E050E00CC0000090
:100160002F5F3F4F02C020E030E0273063E03607CA
:10017000B4F34F5F5F4F48175907ACF308955E988B
:1001800088B95F9A00005F9882E090E00E94AC001E
:10019000089581E00E94BF000895813120F48158C4
:1001A0000E94BF00089581550E94BF00089584E613
:1001B00090E00E94AC0088E30E94BF0086E00E94AD
:1001C000BF008FE00E94BF0081E00E94BF008AE074
:1001D00090E00E94AC0008955E9A88B95F9A000092
:1001E0005F9881E090E00E94AC000895EF92FF924A
:1001F0000F931F93CF93DF93182FEB010E94C90039
:100200000EC001E0010F812F0E94CD007E018FEF13
:10021000E81AF80A88810E94EC00102FE701888113
:100220008111EFCFDF91CF911F910F91FF90EF9050
:100230000895CF93C82F8A3019F48DE00E941901D8
:100240009091C00095FFFCCFC093C60080E090E085
:10025000CF910895442349F021E030E002C0220FFD
:10026000331F6A95E2F7822B089521E030E002C047
:10027000220F331F6A95E2F720958223089521E02B
:1002800030E002C0220F331F6A95E2F782230895FF
:1002900060930E0170930F018093100190931101F0
:1002A00060931401709315018093160190931701C8
:1002B00008958BE0809381008DE790E09093890012
:1002C0008093880082E080936F00109285001092E6
:1002D000840080910E0190910F01A0911001B091C6
:1002E00011018093140190931501A0931601B0930E
:1002F00017018FB780688FBF08951092810008950D
:1003000081E08093180108951F920F920FB60F920B
:1003100011240BB60F922F933F934F935F936F93DC
:100320007F938F939F93AF93BF93EF93FF938091AE
:10033000140190911501A0911601B0911701019738
:10034000A109B1098093140190931501A09316019E
:10035000B0931701892B8A2B8B2B91F40E9480017B
:1003600080910E0190910F01A0911001B0911101A7
:100370008093140190931501A0931601B093170177
:10038000FF91EF91BF91AF919F918F917F916F916D
:100390005F914F913F912F910F900BBE0F900FBE29
:1003A0000F901F9018958FEE88B9000086B160E01D
:1003B0000E943F01882309F46DC086B161E00E946C
:1003C0003F01882309F468C086B162E00E943F01C2
:1003D000882309F463C086B163E00E943F0188234B
:1003E00009F45EC08FED88B9000086B160E00E941C
:1003F0003F01882309F456C086B161E00E943F01A5
:10040000882309F451C086B162E00E943F0188232D
:1004100009F44CC086B163E00E943F01882309F4CF
:1004200047C08FEB88B9000086B160E00E943F01B1
:10043000882309F43FC086B161E00E943F01882310
:10044000D9F186B162E00E943F018823B9F186B1FB
:1004500063E00E943F01882399F18FE788B900008B
:1004600086B160E00E943F01882361F186B161E0BE
:100470000E943F01882341F186B162E00E943F0162
:10048000882321F186B163E00E943F01811120C0E1
:1004900084E4089581E3089584E3089587E308954B
:1004A0008AE2089582E3089585E3089588E3089534
:1004B00080E3089583E3089586E3089589E308952A
:1004C00083E2089581E4089582E4089583E4089521
:1004D00080E00895CF93DF93EC01009721F0813005
:1004E000910579F009C0809113018F3179F08F3136
:1004F00059F4C0E0D0E00AC010921301C0E0D0E08F
:1005000005C0C0E0D0E002C0C1E0D0E0209721F0FB
:10051000C130D10531F00BC00E94D301809313018B
:1005200006C0809113018093120110921301CE0135
:10053000DF91CF9108950F931F93CF93DF93B62F41
:10054000A72FF82FE92F022F132FD42FC52F04C068
:10055000062F172FD82FC92F6B2F7A2F8F2F9E2F53
:10056000202F312F4D2F5C2F0E948503B02FA12FFC
:10057000FD2FEC2F611571058105910549F7602F5D
:10058000712F8D2F9C2FDF91CF911F910F91089587
:10059000CF93DF9300D0CDB7DEB71FEF1AB91BB8EA
:1005A00080EF87B98FE088B922E330E040E050E087
:1005B00060E070E0CB010E949B024B015C0162E3B2
:1005C00070E080E090E0A50194010E948503E9E1DC
:1005D000F1E0FA83E98310832183328343835483D8
:1005E00025833683478350878AE692E09287818706
:1005F000C501B4010E9448010E94590100E010E0C9
:100600003FC0F801EE0FFF1FEC0FFD1FE180F280ED
:10061000D70115964D915D916D917C91189711962A
:100620008D919D910D90BC91A02D481759076A0797
:100630007B07C1F4D7011996ED91FC911A978C9123
:10064000992787FD90950995F7018083F801EE0FB2
:10065000FF1FEC0FFD1F0180F281E02D1582168235
:1006600017821086F70185819681A781B085019652
:10067000A11DB11D85839683A783B0870F5F1F4F90
:100680000115110509F4BDCFE09112018E2F90E004
:1006900085349105B8F5FC01EA5BFF4F0C94A70384
:1006A0008FE18BB9ABCF81E08BB9A8CF82E08BB95A
:1006B000A5CF83E08BB9A2CF84E08BB99FCF85E033
:1006C0008BB99CCF86E08BB999CF87E08BB996CF59
:1006D00088E08BB993CF89E08BB990CF8AE08BB952
:1006E0008DCF8BE08BB98ACF8CE08BB987CF8DE033
:1006F0008BB984CF8EE08BB981CF1BB87FCF8FE0D1
:100700008BB97CCF8BE18BB979CFA1E21A2EAA1BD2
:10071000BB1BFD010DC0AA1FBB1FEE1FFF1FA217B1
:10072000B307E407F50720F0A21BB30BE40BF50BAE
:10073000661F771F881F991F1A9469F76095709537
:10074000809590959B01AC01BD01CF010895EE0FFE
:10075000FF1F0024001C0BBE0790F691E02D0994AA
:04076000F894FFCF3B
:100764000000000200000000190100000000010068
:02077400000083
:00000001FF
