:100000000C948B000C94AA000C94AA000C94AA00E7
:100010000C94AA000C94AA000C94AA000C94AA00B8
:100020000C94AA000C94AA000C94AA000C94AA00A8
:100030000C94AA000C9484010C94AA000C94AA00BD
:100040000C94AA000C94AA000C94AA000C94AA0088
:100050000C94AA000C94AA000C94AA000C94AA0078
:100060000C94AA000C94AA000C94AA000C94AA0068
:100070000C94AA000C94AA000C94AA000C94AA0058
:100080000C94AA000C94AA000C94AA0063036003C9
:100090006003600360036003600360036003600348
:1000A0006003600360036003600360036003600338
:1000B0006003600360036003600360036003600328
:1000C0006003600360036003600360036003600318
:1000D0006003530360036003600360036003600315
:1000E0003A03600360036003600360034703920206
:1000F0009E02AB02B802C502D202DF02EC02F90294
:100100006003600360036003600360036003060331
:10011000130320032D0311241FBECFEFD0E4DEBF55
:10012000CDBF11E0A0E0B1E0ECE6F8E000E00BBFED
:1001300002C007900D92A231B107D9F711E0A2E1F8
:10014000B1E001C01D92A332B107E1F70E9497030D
:100150000C9434040C94000040E050E00CC000000B
:100160002F5F3F4F02C020E030E0273063E03607CA
:10017000B4F34F5F5F4F48175907ACF308955E988B
:1001800088B95F9A00005F9882E090E00E94AC001E
:10019000089581E00E94BF000895813120F48158C4
:1001A0000E94BF00089581550E94BF00089584E613
:1001B00090E00E94AC0088E30E94BF0086E00E94AD
:1001C000BF008FE00E94BF0081E00E94BF008AE074
:1001D00090E00E94AC0008955E9A88B95F9A000092
:1001E0005F9881E090E00E94AC000895EF92FF924A
:1001F0000F931F93CF93DF93182FEB010E94C90039
:100200000EC001E0010F812F0E94CD007E018FEF13
:10021000E81AF80A88810E94EC00102FE701888113
:100220008111EFCFDF91CF911F910F91FF90EF9050
:100230000895CF93C82F8A3019F48DE00E941901D8
:100240009091C00095FFFCCFC093C60080E090E085
:10025000CF910895442349F021E030E002C0220FFD
:10026000331F6A95E2F7822B089521E030E002C047
:10027000220F331F6A95E2F720958223089521E02B
:1002800030E002C0220F331F6A95E2F782230895FF
:1002900060930E0170930F018093100190931101F0
:1002A00060931301709314018093150190931601CC
:1002B00008958BE0809381008DE790E09093890012
:1002C0008093880082E080936F00109285001092E6
:1002D000840080910E0190910F01A0911001B091C6
:1002E00011018093130190931401A0931501B09311
:1002F00016018FB780688FBF08951092810008950E
:1003000081E08093170108951F920F920FB60F920C
:1003100011240BB60F922F933F934F935F936F93DC
:100320007F938F939F93AF93BF93EF93FF938091AE
:10033000130190911401A0911501B091160101973C
:10034000A109B1098093130190931401A0931501A1
:10035000B0931601892B8A2B8B2B91F40E9480017C
:1003600080910E0190910F01A0911001B0911101A7
:100370008093130190931401A0931501B09316017B
:10038000FF91EF91BF91AF919F918F917F916F916D
:100390005F914F913F912F910F900BBE0F900FBE29
:1003A0000F901F90189540E064E08FEF0E942A01A3
:1003B00088B9000086B160E080950E943F018111FC
:1003C00080C086B161E080950E943F0181117BC0B1
:1003D00086B162E080950E943F01811176C086B1AE
:1003E00063E080950E943F01811171C040E065E0AB
:1003F0008FEF0E942A0188B9000086B160E08095E5
:100400000E943F01811165C086B161E080950E9424
:100410003F01811160C086B162E080950E943F017A
:1004200081115BC086B163E080950E943F0181111C
:1004300056C040E066E08FEF0E942A0188B90000B4
:1004400086B160E080950E943F0181114AC086B16B
:1004500061E080950E943F01811145C086B162E054
:1004600080950E943F01811140C086B163E0809574
:100470000E943F0181113BC040E067E08FEF0E9486
:100480002A0188B9000086B160E080950E943F0192
:1004900081112FC086B161E080950E943F018111DA
:1004A0002AC086B162E080950E943F01811125C07B
:1004B00086B163E080950E943F018823F9F084E4CF
:1004C000089581E3089584E3089587E308958AE217
:1004D000089582E3089585E3089588E3089580E30D
:1004E000089583E3089586E3089589E3089583E2F8
:1004F000089581E4089582E4089583E40895CF93F4
:10050000DF93EC010E94D301209709F0DFC0482F50
:1005100050E04534510508F0D3C0FA01EA5BFF4FC3
:100520000C942B0481E0809312010E94CD008091F5
:10053000120190E0C0960E94EC00C5C082E080935A
:10054000120181E00E94CD008091120190E0C096DE
:100550000E94EC00B8C083E08093120181E00E9409
:10056000CD008091120190E0C0960E94EC00ABC0DB
:1005700084E08093120181E00E94CD0080911201FD
:1005800090E0C0960E94EC009EC085E0809312012E
:1005900081E00E94CD008091120190E0C0960E94FF
:1005A000EC0091C086E08093120181E00E94CD00B2
:1005B0008091120190E0C0960E94EC0084C087E018
:1005C0008093120181E00E94CD008091120190E0A1
:1005D000C0960E94EC0077C088E08093120181E011
:1005E0000E94CD008091120190E0C0960E94EC0024
:1005F0006AC089E08093120181E00E94CD00809161
:10060000120190E0C0960E94EC005DC08AE08093E9
:10061000120181E00E94CD008091120190E0C79606
:100620000E94EC0050C08BE08093120181E00E9498
:10063000CD008091120190E0C7960E94EC0043C06B
:100640008CE08093120181E00E94CD008091120124
:1006500090E0C7960E94EC0036C08DE080931201B6
:1006600081E00E94CD008091120190E0C7960E9427
:10067000EC0029C08EE08093120181E00E94CD0041
:100680008091120190E04C960E94EC001CC01092E8
:10069000120181E00E94CD008091120190E0C0968D
:1006A0000E94EC0010C08FE08093120181E00E9454
:1006B000CD008091120190E044960E94EC0003C0AE
:1006C0008BE1809312018091120185B9CE01DF91F7
:1006D000CF9108950F931F93CF93DF93B62FA72F3A
:1006E000F82FE92F022F132FD42FC52F04C0062F68
:1006F000172FD82FC92F6B2F7A2F8F2F9E2F202F98
:10070000312F4D2F5C2F0E940904B02FA12FFD2FF8
:10071000EC2F611571058105910549F7602F712F47
:100720008D2F9C2FDF91CF911F910F910895CF9323
:10073000DF9300D0CDB7DEB780EF81B98FE082B90B
:100740008FEF87B918B88AB91BB8E8E1F1E0FA83EE
:10075000E983108282E390E0A0E0B0E0818392839D
:10076000A383B48385839683A783B0878FE792E0C2
:100770009287818761E070E080E090E00E9448010C
:100780000E9459010E94D700E12CF12C38C0F701DA
:10079000EE0FFF1FEC0FFD1F01811281D80115968E
:1007A0004D915D916D917C91189711968D919D91D0
:1007B0000D90BC91A02D481759076A077B0780F060
:1007C000D8011996ED91FC911A978C91992787FD84
:1007D00090950995F80180831582168217821086FC
:1007E000F80185819681A781B0850196A11DB11D73
:1007F00085839683A783B087FFEFEF1AFF0AE11482
:10080000F10429F2809117018823E1F31092170176
:10081000BBCFA1E21A2EAA1BBB1BFD010DC0AA1F54
:10082000BB1FEE1FFF1FA217B307E407F50720F059
:10083000A21BB30BE40BF50B661F771F881F991FD4
:100840001A9469F760957095809590959B01AC011D
:10085000BD01CF010895EE0FFF1F0024001C0BBE49
:0C0860000790F691E02D0994F894FFCF6A
:10086C00000000020000000019010000000001005F
:02087C0000007A
:00000001FF
