:100000000C9446000C9465000C9465000C946500FB
:100010000C9465000C9465000C9465000C946500CC
:100020000C9465000C9465000C9465000C946500BC
:100030000C9465000C9488010C9465000C94650088
:100040000C9465000C9465000C9465000C9465009C
:100050000C9465000C9465000C9465000C9465008C
:100060000C9465000C9465000C9465000C9465007C
:100070000C9465000C9465000C9465000C9465006C
:100080000C9465000C9465000C94650011241FBE4F
:10009000CFEFD0E4DEBFCDBF11E0A0E0B1E0E4E5FA
:1000A000F7E000E00BBF02C007900D92AA31B10744
:1000B000D9F711E0AAE1B1E001C01D92AE34B10759
:1000C000E1F70E94B9020C94A8030C94000040E0F0
:1000D00050E00CC000002F5F3F4F02C020E030E036
:1000E000273063E03607B4F34F5F5F4F4817590777
:1000F000ACF308955E9888B95F9A00005F9882E03B
:1001000090E00E946700089581E00E947A000895BF
:10011000813120F481580E947A00089581550E940F
:100120007A00089584E690E00E94670088E30E94C8
:100130007A0086E00E947A008FE00E947A0081E0D7
:100140000E947A008AE090E00E94670008955E9A1B
:1001500088B95F9A00005F9881E090E00E94670094
:100160000895EF92FF920F931F93CF93DF93182F71
:10017000EB010E9484000EC001E0010F812F0E945C
:1001800088007E018FEFE81AF80A88810E94A70094
:10019000102FE70188818111EFCFDF91CF911F915F
:1001A0000F91FF90EF900895CF93C82F8A3019F4E4
:1001B0008DE00E94D4009091C00095FFFCCFC093C9
:1001C000C60080E090E0CF91089520B12095217085
:1001D0008130910559F08230910529F0009741F462
:1001E000822F90E005C0822F90E002C082E090E074
:1001F0008130910539F421E030911A01311120E06C
:1002000020931A010895009719F0019741F00EC04C
:1002100081E090911A01911180E090E009C081E0A5
:1002200090911A01911180E090E002C080E090E08E
:100230008130910539F421E030911C01311120E029
:1002400020931C010895009719F0019741F00EC00A
:1002500081E090911A01911180E090E009C081E065
:1002600090911A01911180E090E002C080E090E04E
:100270008130910539F421E030911B01311120E0EA
:1002800020931B01089580911C01982F990F892BB1
:1002900085B980E090E008956093000170930101BA
:1002A000809302019093030160931D0170931E01DE
:1002B00080931F019093200108958BE0809381002B
:1002C0008DE790E0909389008093880082E080938E
:1002D0006F0010928500109284008091000190912F
:1002E0000101A0910201B091030180931D0190933F
:1002F0001E01A0931F01B09320018FB780688FBFAC
:10030000089510928100089581E08093210108955D
:100310001F920F920FB60F9211240BB60F922F93CC
:100320003F934F935F936F937F938F939F93AF937D
:10033000BF93EF93FF9380911D0190911E01A091B7
:100340001F01B09120010197A109B10980931D01FE
:1003500090931E01A0931F01B0932001892B8A2B3B
:100360008B2B91F40E9484018091000190910101F6
:10037000A0910201B091030180931D0190931E0191
:10038000A0931F01B0932001FF91EF91BF91AF9116
:100390009F918F917F916F915F914F913F912F919D
:1003A0000F900BBE0F900FBE0F901F901895442317
:1003B00049F021E030E002C0220F331F6A95E2F7D6
:1003C000822B089521E030E002C0220F331F6A958E
:1003D000E2F720958223089521E030E002C0220F49
:1003E000331F6A95E2F7822308958FEE88B90000E3
:1003F00086B160E00E94EC01882309F46DC086B1EB
:1004000061E00E94EC01882309F468C086B162E0D3
:100410000E94EC01882309F463C086B163E00E9466
:10042000EC01882309F45EC08FED88B9000086B125
:1004300060E00E94EC01882309F456C086B161E0B7
:100440000E94EC01882309F451C086B162E00E9449
:10045000EC01882309F44CC086B163E00E94EC01F2
:10046000882309F447C08FEB88B9000086B160E0AB
:100470000E94EC01882309F43FC086B161E00E942C
:10048000EC018823D9F186B162E00E94EC01882357
:10049000B9F186B163E00E94EC01882399F18FE7FE
:1004A00088B9000086B160E00E94EC01882361F108
:1004B00086B161E00E94EC01882341F186B162E0DF
:1004C0000E94EC01882321F186B163E00E94EC01D7
:1004D000811120C084E4089581E3089584E30895A0
:1004E00087E308958AE2089582E3089585E30895F5
:1004F00088E3089580E3089583E3089586E30895EB
:1005000089E3089583E2089581E4089582E40895DB
:1005100083E4089580E008950F931F93CF93DF93B2
:10052000B62FA72FF82FE92F022F132FD42FC52F67
:1005300004C0062F172FD82FC92F6B2F7A2F8F2F7C
:100540009E2F202F312F4D2F5C2F0E948603B02F1E
:10055000A12FFD2FEC2F611571058105910549F73C
:10056000602F712F8D2F9C2FDF91CF911F910F91B5
:100570000895CF93DF93CDB7DEB728970FB6F894E1
:10058000DEBF0FBECDBF11B88FEF82B984B915B8E9
:1005900088E0E2E1F1E0DE01119601900D928A958A
:1005A000E1F7E3E4F1E0108282E390E0A0E0B0E064
:1005B00081839283A383B48385839683A783B08743
:1005C00085EE90E092878187E8E3F1E0108284EF86
:1005D00091E0A0E0B0E081839283A383B48385831C
:1005E0009683A783B08783E091E092878187EDE2CD
:1005F000F1E0108288EE93E0A0E0B0E08183928386
:10060000A383B48385839683A783B08723E231E0F5
:1006100032872187E2E2F1E0108281839283A38313
:10062000B48385839683A783B08783E491E0928720
:100630008187E981FA8181809280A380B48001E082
:1006400010E014C0F801EE0FFF1FEC0FFD1F01803A
:10065000F281E02D2181328143815481C501B401B1
:100660000E948C024B015C010F5F1F4F043011058B
:1006700048F3C501B4010E944C010E945D01E12CC8
:10068000F12C39C0F701EE0FFF1FEC0FFD1F0181A8
:100690001281D80115964D915D916D917C911897BD
:1006A00011968D919D910D90BC91A02D48175907E1
:1006B0006A077B0781F4D8011996ED91FC911A978E
:1006C0008C91992787FD90950995F8018083158273
:1006D000168217821086F80185819681A781B085E0
:1006E000880D991DAA1DBB1D85839683A783B0879E
:1006F000FFEFEF1AFF0A84E0E816F10418F2809188
:1007000021018823E1F310922101B9CFA1E21A2E31
:10071000AA1BBB1BFD010DC0AA1FBB1FEE1FFF1FA5
:10072000A217B307E407F50720F0A21BB30BE40BF5
:10073000F50B661F771F881F991F1A9469F760953C
:100740007095809590959B01AC01BD01CF010895F6
:04075000F894FFCF4B
:10075400010000000000000200000000D4000000BE
:0A0764000000430138012D012201BD
:00000001FF
